{
  "address": "0x5424cab141b265e17559dCf3FFbA1D0E43bA310b",
  "abi": [
    {
      "inputs": [],
      "stateMutability": "nonpayable",
      "type": "constructor"
    },
    {
      "anonymous": false,
      "inputs": [
        {
          "indexed": false,
          "internalType": "address",
          "name": "caller",
          "type": "address"
        },
        {
          "indexed": false,
          "internalType": "address",
          "name": "poolAddress",
          "type": "address"
        },
        {
          "indexed": false,
          "internalType": "uint256",
          "name": "initialAmount",
          "type": "uint256"
        }
      ],
      "name": "CreateIncentivePool",
      "type": "event"
    },
    {
      "anonymous": false,
      "inputs": [
        {
          "indexed": false,
          "internalType": "uint8",
          "name": "version",
          "type": "uint8"
        }
      ],
      "name": "Initialized",
      "type": "event"
    },
    {
      "inputs": [
        {
          "components": [
            {
              "components": [
                {
                  "internalType": "contract IERC20",
                  "name": "incentiveToken",
                  "type": "address"
                },
                {
                  "internalType": "uint256",
                  "name": "incentiveAmountPerTransaction",
                  "type": "uint256"
                },
                {
                  "internalType": "uint256",
                  "name": "affiliateAmountPerTransaction",
                  "type": "uint256"
                },
                {
                  "internalType": "uint256",
                  "name": "userAmountPerTransaction",
                  "type": "uint256"
                },
                {
                  "internalType": "uint256",
                  "name": "leftTransactionNum",
                  "type": "uint256"
                },
                {
                  "internalType": "uint256",
                  "name": "maxTransactionNumPerWallet",
                  "type": "uint256"
                },
                {
                  "internalType": "uint256",
                  "name": "endTimeStamp",
                  "type": "uint256"
                }
              ],
              "internalType": "struct CommonDtos.IncentiveInfo",
              "name": "incentiveInfo",
              "type": "tuple"
            }
          ],
          "internalType": "struct CommonDtos.CreateIncentivePoolReq",
          "name": "req",
          "type": "tuple"
        }
      ],
      "name": "createIncentivePool",
      "outputs": [],
      "stateMutability": "payable",
      "type": "function"
    },
    {
      "inputs": [
        {
          "internalType": "address",
          "name": "",
          "type": "address"
        }
      ],
      "name": "deployerToIncentivePool",
      "outputs": [
        {
          "internalType": "address",
          "name": "",
          "type": "address"
        }
      ],
      "stateMutability": "view",
      "type": "function"
    },
    {
      "inputs": [
        {
          "internalType": "uint256",
          "name": "",
          "type": "uint256"
        }
      ],
      "name": "deployers",
      "outputs": [
        {
          "internalType": "address",
          "name": "",
          "type": "address"
        }
      ],
      "stateMutability": "view",
      "type": "function"
    },
    {
      "inputs": [],
      "name": "getDeployers",
      "outputs": [
        {
          "internalType": "address[]",
          "name": "",
          "type": "address[]"
        }
      ],
      "stateMutability": "view",
      "type": "function"
    },
    {
      "inputs": [],
      "name": "getIncentivePoolAddresses",
      "outputs": [
        {
          "internalType": "address[]",
          "name": "",
          "type": "address[]"
        }
      ],
      "stateMutability": "view",
      "type": "function"
    },
    {
      "inputs": [
        {
          "internalType": "uint256",
          "name": "",
          "type": "uint256"
        }
      ],
      "name": "incentivePools",
      "outputs": [
        {
          "internalType": "contract IncentivePool",
          "name": "",
          "type": "address"
        }
      ],
      "stateMutability": "view",
      "type": "function"
    },
    {
      "inputs": [
        {
          "internalType": "address",
          "name": "masterAdmin_",
          "type": "address"
        },
        {
          "internalType": "uint256",
          "name": "poolCreationFee_",
          "type": "uint256"
        }
      ],
      "name": "initialize",
      "outputs": [],
      "stateMutability": "nonpayable",
      "type": "function"
    },
    {
      "inputs": [
        {
          "internalType": "address",
          "name": "",
          "type": "address"
        }
      ],
      "name": "isValidPool",
      "outputs": [
        {
          "internalType": "bool",
          "name": "",
          "type": "bool"
        }
      ],
      "stateMutability": "view",
      "type": "function"
    },
    {
      "inputs": [],
      "name": "masterAdmin",
      "outputs": [
        {
          "internalType": "address",
          "name": "",
          "type": "address"
        }
      ],
      "stateMutability": "view",
      "type": "function"
    },
    {
      "inputs": [],
      "name": "poolCreationFee",
      "outputs": [
        {
          "internalType": "uint256",
          "name": "",
          "type": "uint256"
        }
      ],
      "stateMutability": "view",
      "type": "function"
    },
    {
      "inputs": [
        {
          "components": [
            {
              "components": [
                {
                  "internalType": "address",
                  "name": "incentivePoolAddress",
                  "type": "address"
                },
                {
                  "components": [
                    {
                      "internalType": "address",
                      "name": "affiliate",
                      "type": "address"
                    },
                    {
                      "internalType": "address",
                      "name": "user",
                      "type": "address"
                    }
                  ],
                  "internalType": "struct CommonDtos.Referral[]",
                  "name": "referrals",
                  "type": "tuple[]"
                }
              ],
              "internalType": "struct CommonDtos.PoolUpdateInfo[]",
              "name": "info",
              "type": "tuple[]"
            }
          ],
          "internalType": "struct CommonDtos.UpdateIncentivePoolsReq",
          "name": "req",
          "type": "tuple"
        }
      ],
      "name": "updateIncentivePools",
      "outputs": [],
      "stateMutability": "nonpayable",
      "type": "function"
    }
  ],
  "transactionHash": "0xdb9c88ff2ca696b722aba4d998c81922cd1f9f0b6890a2fa3d63973bbd0ed8e6",
  "args": [],
  "numDeployments": 1,
  "solcInputHash": "b9f2917a7494480b7ba153cec4a473c5",
  "bytecode": "0x608060405234801561001057600080fd5b5061001961001e565b6100dd565b600054610100900460ff161561008a5760405162461bcd60e51b815260206004820152602760248201527f496e697469616c697a61626c653a20636f6e747261637420697320696e697469604482015266616c697a696e6760c81b606482015260840160405180910390fd5b60005460ff908116146100db576000805460ff191660ff9081179091556040519081527f7f26b83ff96e1f2b6a682f133852f6798a09c465da95921460cefb38474024989060200160405180910390a15b565b61234a806100ec6000396000f3fe608060405260043610620000a95760003560e01c8063660a69cb116200006c578063660a69cb14620001ac5780636764cdc014620001c45780638ba97b9b14620001e95780638faa77b2146200020e578063be74615f1462000233578063cd6dc687146200025a57600080fd5b806325bd84a214620000ae5780632a68f64e1462000105578063581ff0c814620001275780635ab78ee11462000140578063607c12b51462000185575b600080fd5b348015620000bb57600080fd5b50620000e8620000cd36600462000ca5565b6003602052600090815260409020546001600160a01b031681565b6040516001600160a01b0390911681526020015b60405180910390f35b3480156200011257600080fd5b50600554620000e8906001600160a01b031681565b6200013e6200013836600462000d8e565b6200027f565b005b3480156200014d57600080fd5b50620001746200015f36600462000ca5565b60026020526000908152604090205460ff1681565b6040519015158152602001620000fc565b3480156200019257600080fd5b506200019d620006f5565b604051620000fc919062000e2f565b348015620001b957600080fd5b506200019d620007d5565b348015620001d157600080fd5b506200013e620001e336600462000ea5565b620008ae565b348015620001f657600080fd5b50620000e862000208366004620010a5565b62000a99565b3480156200021b57600080fd5b50620000e86200022d366004620010a5565b62000ac4565b3480156200024057600080fd5b506200024b60045481565b604051908152602001620000fc565b3480156200026757600080fd5b506200013e62000279366004620010bf565b62000ad5565b60075460ff16620002c95760405162461bcd60e51b815260206004820152600f60248201526e1053149150511657d1539511549151608a1b60448201526064015b60405180910390fd5b6007805460ff1916905580516004543410156200031d5760405162461bcd60e51b81526020600482015260116024820152704e4f545f454e4f554748545f56414c554560781b6044820152606401620002c0565b80516001600160a01b03166200036e5760405162461bcd60e51b8152602060048201526015602482015274494e56414c49445f544f4b454e5f4144445245535360581b6044820152606401620002c0565b336000908152600360205260409020546001600160a01b031615620003c65760405162461bcd60e51b815260206004820152600d60248201526c141493d11550d517d3d5d39151609a1b6044820152606401620002c0565b600081602001518260800151620003de919062001104565b82516040516323b872dd60e01b8152336004820152306024820152604481018390529192506001600160a01b0316906323b872dd906064016020604051808303816000875af115801562000436573d6000803e3d6000fd5b505050506040513d601f19601f820116820180604052508101906200045c919062001126565b506200046762000c14565b338152602081018390526040516000908290620004849062000c7e565b620004f2919060006101008201905060018060a01b038084511683526020840151818151166020850152602081015160408501526040810151606085015260608101516080850152608081015160a085015260a081015160c085015260c081015160e0850152505092915050565b604051809103906000f0801580156200050f573d6000803e3d6000fd5b506001805480820182557fb10e2d527612073b26eecdfd717e6a320cf44b4afac2b0732d9fcbe2b7fa0cf60180546001600160a01b03199081166001600160a01b03858116918217909355600680548086019091557ff652222313e28459528d920b65115c16c04f3efc82aaedc97be59f3f377c0d3f0180543390841681179091556000828152600260209081526040808320805460ff19169098179097559181526003909152849020805490921681179091558751925163095ea7b360e01b8152600481019190915260248101879052929350169063095ea7b3906044016020604051808303816000875af11580156200060e573d6000803e3d6000fd5b505050506040513d601f19601f8201168201806040525081019062000634919062001126565b506080840151604051634753a7a160e11b815260048101919091526001600160a01b03821690638ea74f4290602401600060405180830381600087803b1580156200067e57600080fd5b505af115801562000693573d6000803e3d6000fd5b5050604080513381526001600160a01b03851660208201529081018690527f1ebff2f2b8dfaf965fffb2fddfa8e705e28ca6c7f0966cfc8f8587449774b6e09250606001905060405180910390a150506007805460ff19166001179055505050565b60065460609060008167ffffffffffffffff81111562000719576200071962000ccc565b60405190808252806020026020018201604052801562000743578160200160208202803683370190505b50905060005b82811015620007ce576000600682815481106200076a576200076a6200114a565b9060005260206000200160009054906101000a90046001600160a01b0316905080838381518110620007a057620007a06200114a565b6001600160a01b039092166020928302919091019091015250620007c660018262001160565b905062000749565b5092915050565b60015460609060008167ffffffffffffffff811115620007f957620007f962000ccc565b60405190808252806020026020018201604052801562000823578160200160208202803683370190505b50905060005b82811015620007ce576000600182815481106200084a576200084a6200114a565b9060005260206000200160009054906101000a90046001600160a01b03169050808383815181106200088057620008806200114a565b6001600160a01b039092166020928302919091019091015250620008a660018262001160565b905062000829565b60075460ff16620008f45760405162461bcd60e51b815260206004820152600f60248201526e1053149150511657d1539511549151608a1b6044820152606401620002c0565b6007805460ff191690556005546001600160a01b031633146200094a5760405162461bcd60e51b815260206004820152600d60248201526c1050d0d154d4d7d11153925151609a1b6044820152606401620002c0565b60005b81515181101562000a88576000826000015182815181106200097357620009736200114a565b602090810291909101810151516001600160a01b0381166000908152600290925260409091205490915060ff16620009e55760405162461bcd60e51b8152602060048201526014602482015273494e56414c49445f504f4f4c5f4144445245535360601b6044820152606401620002c0565b6000819050806001600160a01b031663f8a8f9e78560000151858151811062000a125762000a126200114a565b6020026020010151602001516040518263ffffffff1660e01b815260040162000a3c91906200117b565b600060405180830381600087803b15801562000a5757600080fd5b505af115801562000a6c573d6000803e3d6000fd5b505050505050808062000a7f90620011d9565b9150506200094d565b50506007805460ff19166001179055565b6001818154811062000aaa57600080fd5b6000918252602090912001546001600160a01b0316905081565b6006818154811062000aaa57600080fd5b600054610100900460ff161580801562000af65750600054600160ff909116105b8062000b125750303b15801562000b12575060005460ff166001145b62000b775760405162461bcd60e51b815260206004820152602e60248201527f496e697469616c697a61626c653a20636f6e747261637420697320616c72656160448201526d191e481a5b9a5d1a585b1a5e995960921b6064820152608401620002c0565b6000805460ff19166001179055801562000b9b576000805461ff0019166101001790555b600580546001600160a01b0319166001600160a01b03851617905560048290556007805460ff19166001179055801562000c0f576000805461ff0019169055604051600181527f7f26b83ff96e1f2b6a682f133852f6798a09c465da95921460cefb38474024989060200160405180910390a15b505050565b604051806040016040528060006001600160a01b0316815260200162000c796040518060e0016040528060006001600160a01b031681526020016000815260200160008152602001600081526020016000815260200160008152602001600081525090565b905290565b61111d80620011f883390190565b6001600160a01b038116811462000ca257600080fd5b50565b60006020828403121562000cb857600080fd5b813562000cc58162000c8c565b9392505050565b634e487b7160e01b600052604160045260246000fd5b60405160e0810167ffffffffffffffff8111828210171562000d085762000d0862000ccc565b60405290565b6040516020810167ffffffffffffffff8111828210171562000d085762000d0862000ccc565b6040805190810167ffffffffffffffff8111828210171562000d085762000d0862000ccc565b604051601f8201601f1916810167ffffffffffffffff8111828210171562000d865762000d8662000ccc565b604052919050565b600060e0828403121562000da157600080fd5b6040516020810181811067ffffffffffffffff8211171562000dc75762000dc762000ccc565b60405262000dd462000ce2565b833562000de18162000c8c565b808252506020840135602082015260408401356040820152606084013560608201526080840135608082015260a084013560a082015260c084013560c0820152808252508091505092915050565b6020808252825182820181905260009190848201906040850190845b8181101562000e725783516001600160a01b03168352928401929184019160010162000e4b565b50909695505050505050565b600067ffffffffffffffff82111562000e9b5762000e9b62000ccc565b5060051b60200190565b60006020828403121562000eb857600080fd5b67ffffffffffffffff808335111562000ed057600080fd5b6020833584018503121562000ee457600080fd5b62000eee62000d0e565b818435850135111562000f0057600080fd5b83358401803501601f8101861362000f1757600080fd5b62000f2d62000f27823562000e7e565b62000d5a565b81358082526020808301929160051b84010188101562000f4c57600080fd5b602083015b6020843560051b8501018110156200109757858135111562000f7257600080fd5b803584016040818b03601f1901121562000f8b57600080fd5b62000f9562000d34565b62000fa4602083013562000c8c565b60208201358152876040830135111562000fbd57600080fd5b6040820135820191508a603f83011262000fd657600080fd5b62000fe962000f27602084013562000e7e565b602083810135808352908201919060061b84016040018d8111156200100d57600080fd5b6040850194505b8085101562001077576040858f0312156200102e57600080fd5b6200103862000d34565b62001044863562000c8c565b8535815262001057602087013562000c8c565b602086013560208201528084525060208301925060408501945062001014565b508060208401525050808552505060208301925060208101905062000f51565b508352509095945050505050565b600060208284031215620010b857600080fd5b5035919050565b60008060408385031215620010d357600080fd5b8235620010e08162000c8c565b946020939093013593505050565b634e487b7160e01b600052601160045260246000fd5b6000816000190483118215151615620011215762001121620010ee565b500290565b6000602082840312156200113957600080fd5b8151801515811462000cc557600080fd5b634e487b7160e01b600052603260045260246000fd5b60008219821115620011765762001176620010ee565b500190565b602080825282518282018190526000919060409081850190868401855b82811015620011cc57815180516001600160a01b039081168652908701511686850152928401929085019060010162001198565b5091979650505050505050565b6000600019821415620011f057620011f0620010ee565b506001019056fe60806040523480156200001157600080fd5b506040516200111d3803806200111d83398101604081905262000034916200013b565b60208181015160008054336001600160a01b03199182161790915592516001805485166001600160a01b03928316179055815160068054909516911617909255810151600755604081015160085560608101516009556080810151600a5560a0810151600b5560c00151600c55600f80546201000062ffffff19909116179055620001e9565b604080519081016001600160401b0381118282101715620000eb57634e487b7160e01b600052604160045260246000fd5b60405290565b60405160e081016001600160401b0381118282101715620000eb57634e487b7160e01b600052604160045260246000fd5b6001600160a01b03811681146200013857600080fd5b50565b60008183036101008112156200015057600080fd5b6200015a620000ba565b8351620001678162000122565b815260e0601f19830112156200017c57600080fd5b62000186620000f1565b91506020840151620001988162000122565b8083525060408401516020830152606084015160408301526080840151606083015260a0840151608083015260c084015160a083015260e084015160c0830152816020820152809250505092915050565b610f2480620001f96000396000f3fe608060405234801561001057600080fd5b506004361061010a5760003560e01c8063a3d09c1b116100a2578063c45a015511610071578063c45a015514610261578063c9a0b40614610274578063ebd238fb1461027c578063f1b3f86f146102e6578063f8a8f9e7146102ee57600080fd5b8063a3d09c1b14610203578063a804660914610223578063b610fb6414610246578063b782cc491461024e57600080fd5b806350bc9995116100de57806350bc99951461019e578063839e7e89146101ab5780638ea74f42146101dc5780639361076a146101f157600080fd5b8062ce8e3e1461010f5780630255fa1e1461012d5780631bd7874814610160578063365b98b21461018b575b600080fd5b610117610301565b6040516101249190610c38565b60405180910390f35b61015061013b366004610ca1565b60056020526000908152604090205460ff1681565b6040519015158152602001610124565b61017361016e366004610cc3565b6103d3565b6040516001600160a01b039091168152602001610124565b610173610199366004610cc3565b6103fd565b600f546101509060ff1681565b6101ce6101b9366004610ca1565b600d6020526000908152604090206002015481565b604051908152602001610124565b6101ef6101ea366004610cc3565b61040d565b005b600f5461015090610100900460ff1681565b6101ce610211366004610ca1565b600e6020526000908152604090205481565b610150610231366004610ca1565b60036020526000908152604090205460ff1681565b6101ef610573565b600154610173906001600160a01b031681565b600054610173906001600160a01b031681565b6101ef610721565b600654600754600854600954600a54600b54600c546102a7966001600160a01b031695949392919087565b604080516001600160a01b0390981688526020880196909652948601939093526060850191909152608084015260a083015260c082015260e001610124565b6101176108ca565b6101ef6102fc366004610d4c565b610995565b60045460609060008167ffffffffffffffff81111561032257610322610cdc565b60405190808252806020026020018201604052801561034b578160200160208202803683370190505b50905060005b828110156103cc5760006004828154811061036e5761036e610e28565b9060005260206000200160009054906101000a90046001600160a01b03169050808383815181106103a1576103a1610e28565b6001600160a01b0390921660209283029190910190910152506103c5600182610e54565b9050610351565b5092915050565b600281815481106103e357600080fd5b6000918252602090912001546001600160a01b0316905081565b600481815481106103e357600080fd5b6000546001600160a01b031633148061043057506001546001600160a01b031633145b6104715760405162461bcd60e51b815260206004820152600d60248201526c1050d0d154d4d7d11153925151609a1b60448201526064015b60405180910390fd5b6007546000906104819083610e6c565b6006546040516323b872dd60e01b8152336004820152306024820152604481018390529192506001600160a01b0316906323b872dd906064016020604051808303816000875af11580156104d9573d6000803e3d6000fd5b505050506040513d601f19601f820116820180604052508101906104fd9190610e8b565b506000546001600160a01b0316331461052b5781600660040160008282546105259190610e54565b90915550505b600a5460408051848152602081019290925281018290527f6213dc923ba9cebd39b57f99bbecb140a32b0af21fa6c41feee100e40b9179289060600160405180910390a15050565b600f5462010000900460ff166105bd5760405162461bcd60e51b815260206004820152600f60248201526e1053149150511657d1539511549151608a1b6044820152606401610468565b600f805462ff000019811690915560ff16156105eb5760405162461bcd60e51b815260040161046890610ead565b336000908152600e6020526040902054806106395760405162461bcd60e51b815260206004820152600e60248201526d2727afaa2920a729a0a1aa24a7a760911b6044820152606401610468565b336000908152600e602052604081208190556009546106589083610e6c565b60065460405163a9059cbb60e01b8152336004820152602481018390529192506001600160a01b03169063a9059cbb906044016020604051808303816000875af11580156106aa573d6000803e3d6000fd5b505050506040513d601f19601f820116820180604052508101906106ce9190610e8b565b506001604080518481526020810184905233917f59e315fd5d58892f063ba6918d15beaa1321d25d324b3388bf142e4b6e48538d910160405180910390a35050600f805462ff0000191662010000179055565b600f5462010000900460ff1661076b5760405162461bcd60e51b815260206004820152600f60248201526e1053149150511657d1539511549151608a1b6044820152606401610468565b600f805462ff000019811690915560ff16156107995760405162461bcd60e51b815260040161046890610ead565b336000908152600d6020526040812060028101805492905590806107f05760405162461bcd60e51b815260206004820152600e60248201526d2727afaa2920a729a0a1aa24a7a760911b6044820152606401610468565b6008546000906108009083610e6c565b60065460405163a9059cbb60e01b8152336004820152602481018390529192506001600160a01b03169063a9059cbb906044016020604051808303816000875af1158015610852573d6000803e3d6000fd5b505050506040513d601f19601f820116820180604052508101906108769190610e8b565b506000604080518481526020810184905233917f59e315fd5d58892f063ba6918d15beaa1321d25d324b3388bf142e4b6e48538d910160405180910390a35050600f805462ff000019166201000017905550565b60025460609060008167ffffffffffffffff8111156108eb576108eb610cdc565b604051908082528060200260200182016040528015610914578160200160208202803683370190505b50905060005b828110156103cc5760006002828154811061093757610937610e28565b9060005260206000200160009054906101000a90046001600160a01b031690508083838151811061096a5761096a610e28565b6001600160a01b03909216602092830291909101909101525061098e600182610e54565b905061091a565b600f54610100900460ff16156109bd5760405162461bcd60e51b815260040161046890610ead565b6000546001600160a01b03163314610a075760405162461bcd60e51b815260206004820152600d60248201526c1050d0d154d4d7d11153925151609a1b6044820152606401610468565b60005b8151811015610c34576000828281518110610a2757610a27610e28565b60200260200101516000015190506000838381518110610a4957610a49610e28565b6020908102919091018101518101516001600160a01b038085166000908152600d84526040808220928416825293829052929092205490925060ff1680610ad1576001600160a01b0383166000818152602084815260408220805460ff1916600190811790915585810180549182018155835291200180546001600160a01b03191690911790555b600282018054906000610ae383610ed3565b90915550506001600160a01b0383166000908152600e60205260408120805491610b0c83610ed3565b90915550506001600160a01b03841660009081526003602052604090205460ff16610b97576001600160a01b0384166000818152600360205260408120805460ff191660019081179091556002805491820181559091527f405787fa12a823e0f2b7631cc41b3ba8828b3321ca811111fa75cd3aa3bb5ace0180546001600160a01b03191690911790555b6001600160a01b03831660009081526005602052604090205460ff16610c1d576001600160a01b0383166000818152600560205260408120805460ff191660019081179091556004805491820181559091527f8a35acfbc15ff81a39ae7d344fd709f28e8600b4aa8c65c6b64bfe7fe36bd19b0180546001600160a01b03191690911790555b505050508080610c2c90610ed3565b915050610a0a565b5050565b6020808252825182820181905260009190848201906040850190845b81811015610c795783516001600160a01b031683529284019291840191600101610c54565b50909695505050505050565b80356001600160a01b0381168114610c9c57600080fd5b919050565b600060208284031215610cb357600080fd5b610cbc82610c85565b9392505050565b600060208284031215610cd557600080fd5b5035919050565b634e487b7160e01b600052604160045260246000fd5b6040805190810167ffffffffffffffff81118282101715610d1557610d15610cdc565b60405290565b604051601f8201601f1916810167ffffffffffffffff81118282101715610d4457610d44610cdc565b604052919050565b60006020808385031215610d5f57600080fd5b823567ffffffffffffffff80821115610d7757600080fd5b818501915085601f830112610d8b57600080fd5b813581811115610d9d57610d9d610cdc565b610dab848260051b01610d1b565b818152848101925060069190911b830184019087821115610dcb57600080fd5b928401925b81841015610e1d5760408489031215610de95760008081fd5b610df1610cf2565b610dfa85610c85565b8152610e07868601610c85565b8187015283526040939093019291840191610dd0565b979650505050505050565b634e487b7160e01b600052603260045260246000fd5b634e487b7160e01b600052601160045260246000fd5b60008219821115610e6757610e67610e3e565b500190565b6000816000190483118215151615610e8657610e86610e3e565b500290565b600060208284031215610e9d57600080fd5b81518015158114610cbc57600080fd5b6020808252600c908201526b10d310525357d4105554d15160a21b604082015260600190565b6000600019821415610ee757610ee7610e3e565b506001019056fea2646970667358221220faff4542651da15b62be84b3bd7105d6c7571a1321cb8e6b51189b9bdb1b15b964736f6c634300080b0033a264697066735822122015d0efdae6ca13cec4f4eecac0506cbe261ccc6408cae9774d717c4c887cb0d164736f6c634300080b0033",
  "devdoc": {
    "kind": "dev",
    "methods": {
      "constructor": {
        "custom:oz-upgrades-unsafe-allow": "constructor"
      }
    },
    "stateVariables": {
      "_notEntered": {
        "details": "Guard variable for re-entrancy checks"
      },
      "poolCreationFee": {
        "details": "Should be multiplied by unit of ether(1e18)"
      }
    },
    "version": 1
  },
  "userdoc": {
    "events": {
      "CreateIncentivePool(address,address,uint256)": {
        "notice": "Emitted when leftTransactionNum is added"
      }
    },
    "kind": "user",
    "methods": {
      "deployerToIncentivePool(address)": {
        "notice": "Mapping of deployer address to pool address"
      },
      "deployers(uint256)": {
        "notice": "Addresses of the deployers"
      },
      "incentivePools(uint256)": {
        "notice": "List of product incentive pools"
      },
      "isValidPool(address)": {
        "notice": "Mapping of pool address to validness(is it deployed?)"
      },
      "masterAdmin()": {
        "notice": "Address of the master admin of split"
      },
      "poolCreationFee()": {
        "notice": "Pool creation fee paid by contract"
      }
    },
    "version": 1
  },
  "storageLayout": {
    "storage": [
      {
        "astId": 1304,
        "contract": "src/IncentivePoolFactory.sol:IncentivePoolFactory",
        "label": "_initialized",
        "offset": 0,
        "slot": "0",
        "type": "t_uint8"
      },
      {
        "astId": 1307,
        "contract": "src/IncentivePoolFactory.sol:IncentivePoolFactory",
        "label": "_initializing",
        "offset": 1,
        "slot": "0",
        "type": "t_bool"
      },
      {
        "astId": 495,
        "contract": "src/IncentivePoolFactory.sol:IncentivePoolFactory",
        "label": "incentivePools",
        "offset": 0,
        "slot": "1",
        "type": "t_array(t_contract(IncentivePool)481)dyn_storage"
      },
      {
        "astId": 500,
        "contract": "src/IncentivePoolFactory.sol:IncentivePoolFactory",
        "label": "isValidPool",
        "offset": 0,
        "slot": "2",
        "type": "t_mapping(t_address,t_bool)"
      },
      {
        "astId": 505,
        "contract": "src/IncentivePoolFactory.sol:IncentivePoolFactory",
        "label": "deployerToIncentivePool",
        "offset": 0,
        "slot": "3",
        "type": "t_mapping(t_address,t_address)"
      },
      {
        "astId": 508,
        "contract": "src/IncentivePoolFactory.sol:IncentivePoolFactory",
        "label": "poolCreationFee",
        "offset": 0,
        "slot": "4",
        "type": "t_uint256"
      },
      {
        "astId": 511,
        "contract": "src/IncentivePoolFactory.sol:IncentivePoolFactory",
        "label": "masterAdmin",
        "offset": 0,
        "slot": "5",
        "type": "t_address"
      },
      {
        "astId": 515,
        "contract": "src/IncentivePoolFactory.sol:IncentivePoolFactory",
        "label": "deployers",
        "offset": 0,
        "slot": "6",
        "type": "t_array(t_address)dyn_storage"
      },
      {
        "astId": 518,
        "contract": "src/IncentivePoolFactory.sol:IncentivePoolFactory",
        "label": "_notEntered",
        "offset": 0,
        "slot": "7",
        "type": "t_bool"
      }
    ],
    "types": {
      "t_address": {
        "encoding": "inplace",
        "label": "address",
        "numberOfBytes": "20"
      },
      "t_array(t_address)dyn_storage": {
        "base": "t_address",
        "encoding": "dynamic_array",
        "label": "address[]",
        "numberOfBytes": "32"
      },
      "t_array(t_contract(IncentivePool)481)dyn_storage": {
        "base": "t_contract(IncentivePool)481",
        "encoding": "dynamic_array",
        "label": "contract IncentivePool[]",
        "numberOfBytes": "32"
      },
      "t_bool": {
        "encoding": "inplace",
        "label": "bool",
        "numberOfBytes": "1"
      },
      "t_contract(IncentivePool)481": {
        "encoding": "inplace",
        "label": "contract IncentivePool",
        "numberOfBytes": "20"
      },
      "t_mapping(t_address,t_address)": {
        "encoding": "mapping",
        "key": "t_address",
        "label": "mapping(address => address)",
        "numberOfBytes": "32",
        "value": "t_address"
      },
      "t_mapping(t_address,t_bool)": {
        "encoding": "mapping",
        "key": "t_address",
        "label": "mapping(address => bool)",
        "numberOfBytes": "32",
        "value": "t_bool"
      },
      "t_uint256": {
        "encoding": "inplace",
        "label": "uint256",
        "numberOfBytes": "32"
      },
      "t_uint8": {
        "encoding": "inplace",
        "label": "uint8",
        "numberOfBytes": "1"
      }
    }
  }
}