{
  "_format": "hh-sol-artifact-1",
  "contractName": "HyojaeNFT",
  "sourceName": "contracts/hyojaeNFT.sol",
  "abi": [
    {
      "inputs": [],
      "stateMutability": "nonpayable",
      "type": "constructor"
    },
    {
      "anonymous": false,
      "inputs": [
        {
          "indexed": true,
          "internalType": "address",
          "name": "owner",
          "type": "address"
        },
        {
          "indexed": true,
          "internalType": "address",
          "name": "approved",
          "type": "address"
        },
        {
          "indexed": true,
          "internalType": "uint256",
          "name": "tokenId",
          "type": "uint256"
        }
      ],
      "name": "Approval",
      "type": "event"
    },
    {
      "anonymous": false,
      "inputs": [
        {
          "indexed": true,
          "internalType": "address",
          "name": "owner",
          "type": "address"
        },
        {
          "indexed": true,
          "internalType": "address",
          "name": "operator",
          "type": "address"
        },
        {
          "indexed": false,
          "internalType": "bool",
          "name": "approved",
          "type": "bool"
        }
      ],
      "name": "ApprovalForAll",
      "type": "event"
    },
    {
      "anonymous": false,
      "inputs": [
        {
          "indexed": true,
          "internalType": "address",
          "name": "from",
          "type": "address"
        },
        {
          "indexed": true,
          "internalType": "address",
          "name": "to",
          "type": "address"
        },
        {
          "indexed": true,
          "internalType": "uint256",
          "name": "tokenId",
          "type": "uint256"
        }
      ],
      "name": "Transfer",
      "type": "event"
    },
    {
      "anonymous": false,
      "inputs": [
        {
          "indexed": false,
          "internalType": "uint256",
          "name": "senderTokenId",
          "type": "uint256"
        },
        {
          "indexed": false,
          "internalType": "uint256",
          "name": "recipientTokenId",
          "type": "uint256"
        },
        {
          "indexed": true,
          "internalType": "address",
          "name": "issuer",
          "type": "address"
        },
        {
          "indexed": false,
          "internalType": "address",
          "name": "recipient",
          "type": "address"
        }
      ],
      "name": "cardExchanged",
      "type": "event"
    },
    {
      "anonymous": false,
      "inputs": [
        {
          "indexed": true,
          "internalType": "uint256",
          "name": "tokenId",
          "type": "uint256"
        },
        {
          "indexed": false,
          "internalType": "address",
          "name": "issuer",
          "type": "address"
        }
      ],
      "name": "mintCard",
      "type": "event"
    },
    {
      "anonymous": false,
      "inputs": [
        {
          "indexed": true,
          "internalType": "address",
          "name": "issuer",
          "type": "address"
        },
        {
          "indexed": false,
          "internalType": "string",
          "name": "name",
          "type": "string"
        },
        {
          "indexed": false,
          "internalType": "uint8",
          "name": "age",
          "type": "uint8"
        },
        {
          "indexed": false,
          "internalType": "string",
          "name": "email",
          "type": "string"
        },
        {
          "indexed": false,
          "internalType": "string",
          "name": "website",
          "type": "string"
        },
        {
          "indexed": false,
          "internalType": "string",
          "name": "gender",
          "type": "string"
        }
      ],
      "name": "registerInfo",
      "type": "event"
    },
    {
      "inputs": [
        {
          "internalType": "address",
          "name": "to",
          "type": "address"
        },
        {
          "internalType": "uint256",
          "name": "tokenId",
          "type": "uint256"
        }
      ],
      "name": "approve",
      "outputs": [],
      "stateMutability": "nonpayable",
      "type": "function"
    },
    {
      "inputs": [
        {
          "internalType": "address",
          "name": "owner",
          "type": "address"
        }
      ],
      "name": "balanceOf",
      "outputs": [
        {
          "internalType": "uint256",
          "name": "",
          "type": "uint256"
        }
      ],
      "stateMutability": "view",
      "type": "function"
    },
    {
      "inputs": [
        {
          "internalType": "address",
          "name": "_to",
          "type": "address"
        }
      ],
      "name": "exchangeCard",
      "outputs": [],
      "stateMutability": "nonpayable",
      "type": "function"
    },
    {
      "inputs": [
        {
          "internalType": "uint256",
          "name": "tokenId",
          "type": "uint256"
        }
      ],
      "name": "getApproved",
      "outputs": [
        {
          "internalType": "address",
          "name": "",
          "type": "address"
        }
      ],
      "stateMutability": "view",
      "type": "function"
    },
    {
      "inputs": [
        {
          "internalType": "uint256",
          "name": "tokenId",
          "type": "uint256"
        }
      ],
      "name": "getCardInfos",
      "outputs": [
        {
          "components": [
            {
              "internalType": "string",
              "name": "name",
              "type": "string"
            },
            {
              "internalType": "uint8",
              "name": "age",
              "type": "uint8"
            },
            {
              "internalType": "string",
              "name": "email",
              "type": "string"
            },
            {
              "internalType": "string",
              "name": "website",
              "type": "string"
            },
            {
              "internalType": "string",
              "name": "gender",
              "type": "string"
            }
          ],
          "internalType": "struct HyojaeNFT.BusinessCard",
          "name": "",
          "type": "tuple"
        }
      ],
      "stateMutability": "view",
      "type": "function"
    },
    {
      "inputs": [
        {
          "internalType": "address",
          "name": "issuer",
          "type": "address"
        }
      ],
      "name": "getTokenIds",
      "outputs": [
        {
          "internalType": "uint256[]",
          "name": "",
          "type": "uint256[]"
        }
      ],
      "stateMutability": "view",
      "type": "function"
    },
    {
      "inputs": [
        {
          "internalType": "address",
          "name": "owner",
          "type": "address"
        },
        {
          "internalType": "address",
          "name": "operator",
          "type": "address"
        }
      ],
      "name": "isApprovedForAll",
      "outputs": [
        {
          "internalType": "bool",
          "name": "",
          "type": "bool"
        }
      ],
      "stateMutability": "view",
      "type": "function"
    },
    {
      "inputs": [],
      "name": "mintFee",
      "outputs": [
        {
          "internalType": "uint256",
          "name": "",
          "type": "uint256"
        }
      ],
      "stateMutability": "view",
      "type": "function"
    },
    {
      "inputs": [],
      "name": "name",
      "outputs": [
        {
          "internalType": "string",
          "name": "",
          "type": "string"
        }
      ],
      "stateMutability": "view",
      "type": "function"
    },
    {
      "inputs": [
        {
          "internalType": "uint256",
          "name": "tokenId",
          "type": "uint256"
        }
      ],
      "name": "ownerOf",
      "outputs": [
        {
          "internalType": "address",
          "name": "",
          "type": "address"
        }
      ],
      "stateMutability": "view",
      "type": "function"
    },
    {
      "inputs": [
        {
          "internalType": "string",
          "name": "_name",
          "type": "string"
        },
        {
          "internalType": "uint8",
          "name": "_age",
          "type": "uint8"
        },
        {
          "internalType": "string",
          "name": "_email",
          "type": "string"
        },
        {
          "internalType": "string",
          "name": "_website",
          "type": "string"
        },
        {
          "internalType": "string",
          "name": "_gender",
          "type": "string"
        }
      ],
      "name": "registerCard",
      "outputs": [],
      "stateMutability": "payable",
      "type": "function"
    },
    {
      "inputs": [
        {
          "internalType": "address",
          "name": "from",
          "type": "address"
        },
        {
          "internalType": "address",
          "name": "to",
          "type": "address"
        },
        {
          "internalType": "uint256",
          "name": "tokenId",
          "type": "uint256"
        }
      ],
      "name": "safeTransferFrom",
      "outputs": [],
      "stateMutability": "nonpayable",
      "type": "function"
    },
    {
      "inputs": [
        {
          "internalType": "address",
          "name": "from",
          "type": "address"
        },
        {
          "internalType": "address",
          "name": "to",
          "type": "address"
        },
        {
          "internalType": "uint256",
          "name": "tokenId",
          "type": "uint256"
        },
        {
          "internalType": "bytes",
          "name": "data",
          "type": "bytes"
        }
      ],
      "name": "safeTransferFrom",
      "outputs": [],
      "stateMutability": "nonpayable",
      "type": "function"
    },
    {
      "inputs": [
        {
          "internalType": "address",
          "name": "operator",
          "type": "address"
        },
        {
          "internalType": "bool",
          "name": "approved",
          "type": "bool"
        }
      ],
      "name": "setApprovalForAll",
      "outputs": [],
      "stateMutability": "nonpayable",
      "type": "function"
    },
    {
      "inputs": [
        {
          "internalType": "bytes4",
          "name": "interfaceId",
          "type": "bytes4"
        }
      ],
      "name": "supportsInterface",
      "outputs": [
        {
          "internalType": "bool",
          "name": "",
          "type": "bool"
        }
      ],
      "stateMutability": "view",
      "type": "function"
    },
    {
      "inputs": [],
      "name": "symbol",
      "outputs": [
        {
          "internalType": "string",
          "name": "",
          "type": "string"
        }
      ],
      "stateMutability": "view",
      "type": "function"
    },
    {
      "inputs": [
        {
          "internalType": "uint256",
          "name": "index",
          "type": "uint256"
        }
      ],
      "name": "tokenByIndex",
      "outputs": [
        {
          "internalType": "uint256",
          "name": "",
          "type": "uint256"
        }
      ],
      "stateMutability": "view",
      "type": "function"
    },
    {
      "inputs": [
        {
          "internalType": "address",
          "name": "owner",
          "type": "address"
        },
        {
          "internalType": "uint256",
          "name": "index",
          "type": "uint256"
        }
      ],
      "name": "tokenOfOwnerByIndex",
      "outputs": [
        {
          "internalType": "uint256",
          "name": "",
          "type": "uint256"
        }
      ],
      "stateMutability": "view",
      "type": "function"
    },
    {
      "inputs": [
        {
          "internalType": "uint256",
          "name": "tokenId",
          "type": "uint256"
        }
      ],
      "name": "tokenURI",
      "outputs": [
        {
          "internalType": "string",
          "name": "",
          "type": "string"
        }
      ],
      "stateMutability": "view",
      "type": "function"
    },
    {
      "inputs": [],
      "name": "totalSupply",
      "outputs": [
        {
          "internalType": "uint256",
          "name": "",
          "type": "uint256"
        }
      ],
      "stateMutability": "view",
      "type": "function"
    },
    {
      "inputs": [
        {
          "internalType": "address",
          "name": "from",
          "type": "address"
        },
        {
          "internalType": "address",
          "name": "to",
          "type": "address"
        },
        {
          "internalType": "uint256",
          "name": "tokenId",
          "type": "uint256"
        }
      ],
      "name": "transferFrom",
      "outputs": [],
      "stateMutability": "nonpayable",
      "type": "function"
    }
  ],
  "bytecode": "0x60806040523480156200001157600080fd5b506040518060400160405280600981526020017f48796f6a61654e465400000000000000000000000000000000000000000000008152506040518060400160405280600681526020017f68796f6a6165000000000000000000000000000000000000000000000000000081525081600090816200008f919062000324565b508060019081620000a1919062000324565b5050506200040b565b600081519050919050565b7f4e487b7100000000000000000000000000000000000000000000000000000000600052604160045260246000fd5b7f4e487b7100000000000000000000000000000000000000000000000000000000600052602260045260246000fd5b600060028204905060018216806200012c57607f821691505b602082108103620001425762000141620000e4565b5b50919050565b60008190508160005260206000209050919050565b60006020601f8301049050919050565b600082821b905092915050565b600060088302620001ac7fffffffffffffffffffffffffffffffffffffffffffffffffffffffffffffffff826200016d565b620001b886836200016d565b95508019841693508086168417925050509392505050565b6000819050919050565b6000819050919050565b600062000205620001ff620001f984620001d0565b620001da565b620001d0565b9050919050565b6000819050919050565b6200022183620001e4565b6200023962000230826200020c565b8484546200017a565b825550505050565b600090565b6200025062000241565b6200025d81848462000216565b505050565b5b8181101562000285576200027960008262000246565b60018101905062000263565b5050565b601f821115620002d4576200029e8162000148565b620002a9846200015d565b81016020851015620002b9578190505b620002d1620002c8856200015d565b83018262000262565b50505b505050565b600082821c905092915050565b6000620002f960001984600802620002d9565b1980831691505092915050565b6000620003148383620002e6565b9150826002028217905092915050565b6200032f82620000aa565b67ffffffffffffffff8111156200034b576200034a620000b5565b5b62000357825462000113565b6200036482828562000289565b600060209050601f8311600181146200039c576000841562000387578287015190505b62000393858262000306565b86555062000403565b601f198416620003ac8662000148565b60005b82811015620003d657848901518255600182019150602085019450602081019050620003af565b86831015620003f65784890151620003f2601f891682620002e6565b8355505b6001600288020188555050505b505050505050565b6143fa806200041b6000396000f3fe60806040526004361061012a5760003560e01c80636352211e116100ab578063c87b56dd1161006f578063c87b56dd14610416578063d004b03614610453578063d9673a6c14610490578063e9770a64146104cd578063e985e9c5146104f6578063ee5f69fc146105335761012a565b80636352211e1461031f57806370a082311461035c57806395d89b4114610399578063a22cb465146103c4578063b88d4fde146103ed5761012a565b806318160ddd116100f257806318160ddd1461022857806323b872dd146102535780632f745c591461027c57806342842e0e146102b95780634f6ccce7146102e25761012a565b806301ffc9a71461012f57806306fdde031461016c578063081812fc14610197578063095ea7b3146101d457806313966db5146101fd575b600080fd5b34801561013b57600080fd5b50610156600480360381019061015191906129de565b61054f565b6040516101639190612a26565b60405180910390f35b34801561017857600080fd5b506101816105c9565b60405161018e9190612ad1565b60405180910390f35b3480156101a357600080fd5b506101be60048036038101906101b99190612b29565b61065b565b6040516101cb9190612b97565b60405180910390f35b3480156101e057600080fd5b506101fb60048036038101906101f69190612bde565b6106a1565b005b34801561020957600080fd5b506102126107b8565b60405161021f9190612c2d565b60405180910390f35b34801561023457600080fd5b5061023d6107c4565b60405161024a9190612c2d565b60405180910390f35b34801561025f57600080fd5b5061027a60048036038101906102759190612c48565b6107d1565b005b34801561028857600080fd5b506102a3600480360381019061029e9190612bde565b610831565b6040516102b09190612c2d565b60405180910390f35b3480156102c557600080fd5b506102e060048036038101906102db9190612c48565b6108d6565b005b3480156102ee57600080fd5b5061030960048036038101906103049190612b29565b6108f6565b6040516103169190612c2d565b60405180910390f35b34801561032b57600080fd5b5061034660048036038101906103419190612b29565b610967565b6040516103539190612b97565b60405180910390f35b34801561036857600080fd5b50610383600480360381019061037e9190612c9b565b6109ed565b6040516103909190612c2d565b60405180910390f35b3480156103a557600080fd5b506103ae610aa4565b6040516103bb9190612ad1565b60405180910390f35b3480156103d057600080fd5b506103eb60048036038101906103e69190612cf4565b610b36565b005b3480156103f957600080fd5b50610414600480360381019061040f9190612e69565b610b4c565b005b34801561042257600080fd5b5061043d60048036038101906104389190612b29565b610bae565b60405161044a9190612ad1565b60405180910390f35b34801561045f57600080fd5b5061047a60048036038101906104759190612c9b565b610c16565b6040516104879190612faa565b60405180910390f35b34801561049c57600080fd5b506104b760048036038101906104b29190612b29565b610d32565b6040516104c491906130bd565b60405180910390f35b3480156104d957600080fd5b506104f460048036038101906104ef9190612c9b565b610fc4565b005b34801561050257600080fd5b5061051d600480360381019061051891906130df565b61121f565b60405161052a9190612a26565b60405180910390f35b61054d600480360381019061054891906131ec565b6112b3565b005b60007f780e9d63000000000000000000000000000000000000000000000000000000007bffffffffffffffffffffffffffffffffffffffffffffffffffffffff1916827bffffffffffffffffffffffffffffffffffffffffffffffffffffffff191614806105c257506105c182611681565b5b9050919050565b6060600080546105d890613306565b80601f016020809104026020016040519081016040528092919081815260200182805461060490613306565b80156106515780601f1061062657610100808354040283529160200191610651565b820191906000526020600020905b81548152906001019060200180831161063457829003601f168201915b5050505050905090565b600061066682611763565b6004600083815260200190815260200160002060009054906101000a900473ffffffffffffffffffffffffffffffffffffffff169050919050565b60006106ac82610967565b90508073ffffffffffffffffffffffffffffffffffffffff168373ffffffffffffffffffffffffffffffffffffffff160361071c576040517f08c379a0000000000000000000000000000000000000000000000000000000008152600401610713906133a9565b60405180910390fd5b8073ffffffffffffffffffffffffffffffffffffffff1661073b6117ae565b73ffffffffffffffffffffffffffffffffffffffff16148061076a5750610769816107646117ae565b61121f565b5b6107a9576040517f08c379a00000000000000000000000000000000000000000000000000000000081526004016107a09061343b565b60405180910390fd5b6107b383836117b6565b505050565b67016345785d8a000081565b6000600880549050905090565b6107e26107dc6117ae565b8261186f565b610821576040517f08c379a0000000000000000000000000000000000000000000000000000000008152600401610818906134cd565b60405180910390fd5b61082c838383611904565b505050565b600061083c836109ed565b821061087d576040517f08c379a00000000000000000000000000000000000000000000000000000000081526004016108749061355f565b60405180910390fd5b600660008473ffffffffffffffffffffffffffffffffffffffff1673ffffffffffffffffffffffffffffffffffffffff168152602001908152602001600020600083815260200190815260200160002054905092915050565b6108f183838360405180602001604052806000815250610b4c565b505050565b60006109006107c4565b8210610941576040517f08c379a0000000000000000000000000000000000000000000000000000000008152600401610938906135f1565b60405180910390fd5b6008828154811061095557610954613611565b5b90600052602060002001549050919050565b60008061097383611bfd565b9050600073ffffffffffffffffffffffffffffffffffffffff168173ffffffffffffffffffffffffffffffffffffffff16036109e4576040517f08c379a00000000000000000000000000000000000000000000000000000000081526004016109db9061368c565b60405180910390fd5b80915050919050565b60008073ffffffffffffffffffffffffffffffffffffffff168273ffffffffffffffffffffffffffffffffffffffff1603610a5d576040517f08c379a0000000000000000000000000000000000000000000000000000000008152600401610a549061371e565b60405180910390fd5b600360008373ffffffffffffffffffffffffffffffffffffffff1673ffffffffffffffffffffffffffffffffffffffff168152602001908152602001600020549050919050565b606060018054610ab390613306565b80601f0160208091040260200160405190810160405280929190818152602001828054610adf90613306565b8015610b2c5780601f10610b0157610100808354040283529160200191610b2c565b820191906000526020600020905b815481529060010190602001808311610b0f57829003601f168201915b5050505050905090565b610b48610b416117ae565b8383611c3a565b5050565b610b5d610b576117ae565b8361186f565b610b9c576040517f08c379a0000000000000000000000000000000000000000000000000000000008152600401610b93906134cd565b60405180910390fd5b610ba884848484611da6565b50505050565b6060610bb982611763565b6000610bc3611e02565b90506000815111610be35760405180602001604052806000815250610c0e565b80610bed84611e19565b604051602001610bfe92919061377a565b6040516020818303038152906040525b915050919050565b60606000600e60008473ffffffffffffffffffffffffffffffffffffffff1673ffffffffffffffffffffffffffffffffffffffff1681526020019081526020016000208054905011610c9d576040517f08c379a0000000000000000000000000000000000000000000000000000000008152600401610c94906137ea565b60405180910390fd5b600e60008373ffffffffffffffffffffffffffffffffffffffff1673ffffffffffffffffffffffffffffffffffffffff168152602001908152602001600020805480602002602001604051908101604052809291908181526020018280548015610d2657602002820191906000526020600020905b815481526020019060010190808311610d12575b50505050509050919050565b610d3a612940565b600b60008381526020019081526020016000206040518060a0016040529081600082018054610d6890613306565b80601f0160208091040260200160405190810160405280929190818152602001828054610d9490613306565b8015610de15780601f10610db657610100808354040283529160200191610de1565b820191906000526020600020905b815481529060010190602001808311610dc457829003601f168201915b505050505081526020016001820160009054906101000a900460ff1660ff1660ff168152602001600282018054610e1790613306565b80601f0160208091040260200160405190810160405280929190818152602001828054610e4390613306565b8015610e905780601f10610e6557610100808354040283529160200191610e90565b820191906000526020600020905b815481529060010190602001808311610e7357829003601f168201915b50505050508152602001600382018054610ea990613306565b80601f0160208091040260200160405190810160405280929190818152602001828054610ed590613306565b8015610f225780601f10610ef757610100808354040283529160200191610f22565b820191906000526020600020905b815481529060010190602001808311610f0557829003601f168201915b50505050508152602001600482018054610f3b90613306565b80601f0160208091040260200160405190810160405280929190818152602001828054610f6790613306565b8015610fb45780601f10610f8957610100808354040283529160200191610fb4565b820191906000526020600020905b815481529060010190602001808311610f9757829003601f168201915b5050505050815250509050919050565b6000600d60003373ffffffffffffffffffffffffffffffffffffffff1673ffffffffffffffffffffffffffffffffffffffff1681526020019081526020016000205411611046576040517f08c379a000000000000000000000000000000000000000000000000000000000815260040161103d9061387c565b60405180910390fd5b6000600d60008373ffffffffffffffffffffffffffffffffffffffff1673ffffffffffffffffffffffffffffffffffffffff16815260200190815260200160002054116110c8576040517f08c379a00000000000000000000000000000000000000000000000000000000081526004016110bf9061390e565b60405180910390fd5b60006110d5336000610831565b905060006110e4836000610831565b90506110f1338484611904565b6110fc833383611904565b600e60003373ffffffffffffffffffffffffffffffffffffffff1673ffffffffffffffffffffffffffffffffffffffff168152602001908152602001600020819080600181540180825580915050600190039060005260206000200160009091909190915055600e60008473ffffffffffffffffffffffffffffffffffffffff1673ffffffffffffffffffffffffffffffffffffffff1681526020019081526020016000208290806001815401808255809150506001900390600052602060002001600090919091909150553373ffffffffffffffffffffffffffffffffffffffff167f1b1719e90e5e5f41f964cd76e1f63409f72d9da3b5278e20c1f933e7983de1958383866040516112129392919061392e565b60405180910390a2505050565b6000600560008473ffffffffffffffffffffffffffffffffffffffff1673ffffffffffffffffffffffffffffffffffffffff16815260200190815260200160002060008373ffffffffffffffffffffffffffffffffffffffff1673ffffffffffffffffffffffffffffffffffffffff16815260200190815260200160002060009054906101000a900460ff16905092915050565b600080600d60003373ffffffffffffffffffffffffffffffffffffffff1673ffffffffffffffffffffffffffffffffffffffff16815260200190815260200160002054119050801561134e5767016345785d8a00003414611349576040517f08c379a0000000000000000000000000000000000000000000000000000000008152600401611340906139b1565b60405180910390fd5b611392565b60003414611391576040517f08c379a000000000000000000000000000000000000000000000000000000000815260040161138890613a1d565b60405180910390fd5b5b6040518060a001604052808781526020018660ff16815260200185815260200184815260200183815250600c60003373ffffffffffffffffffffffffffffffffffffffff1673ffffffffffffffffffffffffffffffffffffffff16815260200190815260200160002060008201518160000190816114109190613be9565b5060208201518160010160006101000a81548160ff021916908360ff16021790555060408201518160020190816114479190613be9565b50606082015181600301908161145d9190613be9565b5060808201518160040190816114739190613be9565b509050503373ffffffffffffffffffffffffffffffffffffffff167fdbea75cd1e8a87cc0bd734895b7cce34a5c93d3a4954814db89a41a4e8a0e24b87878787876040516114c5959493929190613cca565b60405180910390a260005b600a8160ff161015611621576114e6600a611ee7565b60006114f2600a611efd565b90506114fe3382611f0b565b600c60003373ffffffffffffffffffffffffffffffffffffffff1673ffffffffffffffffffffffffffffffffffffffff168152602001908152602001600020600b6000838152602001908152602001600020600082018160000190816115649190613d4f565b506001820160009054906101000a900460ff168160010160006101000a81548160ff021916908360ff160217905550600282018160020190816115a79190613d4f565b50600382018160030190816115bc9190613d4f565b50600482018160040190816115d19190613d4f565b50905050807fe933cfb0e88f931685349b9f6c3596bb13c09176d65538ec28ccad11c70e9302336040516116059190612b97565b60405180910390a250808061161990613e66565b9150506114d0565b50600a600d60003373ffffffffffffffffffffffffffffffffffffffff1673ffffffffffffffffffffffffffffffffffffffff16815260200190815260200160002060008282546116729190613e8f565b92505081905550505050505050565b60007f80ac58cd000000000000000000000000000000000000000000000000000000007bffffffffffffffffffffffffffffffffffffffffffffffffffffffff1916827bffffffffffffffffffffffffffffffffffffffffffffffffffffffff1916148061174c57507f5b5e139f000000000000000000000000000000000000000000000000000000007bffffffffffffffffffffffffffffffffffffffffffffffffffffffff1916827bffffffffffffffffffffffffffffffffffffffffffffffffffffffff1916145b8061175c575061175b82612128565b5b9050919050565b61176c81612192565b6117ab576040517f08c379a00000000000000000000000000000000000000000000000000000000081526004016117a29061368c565b60405180910390fd5b50565b600033905090565b816004600083815260200190815260200160002060006101000a81548173ffffffffffffffffffffffffffffffffffffffff021916908373ffffffffffffffffffffffffffffffffffffffff160217905550808273ffffffffffffffffffffffffffffffffffffffff1661182983610967565b73ffffffffffffffffffffffffffffffffffffffff167f8c5be1e5ebec7d5bd14f71427d1e84f3dd0314c0f7b2291e5b200ac8c7c3b92560405160405180910390a45050565b60008061187b83610967565b90508073ffffffffffffffffffffffffffffffffffffffff168473ffffffffffffffffffffffffffffffffffffffff1614806118bd57506118bc818561121f565b5b806118fb57508373ffffffffffffffffffffffffffffffffffffffff166118e38461065b565b73ffffffffffffffffffffffffffffffffffffffff16145b91505092915050565b8273ffffffffffffffffffffffffffffffffffffffff1661192482610967565b73ffffffffffffffffffffffffffffffffffffffff161461197a576040517f08c379a000000000000000000000000000000000000000000000000000000000815260040161197190613f35565b60405180910390fd5b600073ffffffffffffffffffffffffffffffffffffffff168273ffffffffffffffffffffffffffffffffffffffff16036119e9576040517f08c379a00000000000000000000000000000000000000000000000000000000081526004016119e090613fc7565b60405180910390fd5b6119f683838360016121d3565b8273ffffffffffffffffffffffffffffffffffffffff16611a1682610967565b73ffffffffffffffffffffffffffffffffffffffff1614611a6c576040517f08c379a0000000000000000000000000000000000000000000000000000000008152600401611a6390613f35565b60405180910390fd5b6004600082815260200190815260200160002060006101000a81549073ffffffffffffffffffffffffffffffffffffffff02191690556001600360008573ffffffffffffffffffffffffffffffffffffffff1673ffffffffffffffffffffffffffffffffffffffff168152602001908152602001600020600082825403925050819055506001600360008473ffffffffffffffffffffffffffffffffffffffff1673ffffffffffffffffffffffffffffffffffffffff16815260200190815260200160002060008282540192505081905550816002600083815260200190815260200160002060006101000a81548173ffffffffffffffffffffffffffffffffffffffff021916908373ffffffffffffffffffffffffffffffffffffffff160217905550808273ffffffffffffffffffffffffffffffffffffffff168473ffffffffffffffffffffffffffffffffffffffff167fddf252ad1be2c89b69c2b068fc378daa952ba7f163c4a11628f55a4df523b3ef60405160405180910390a4611bf88383836001612331565b505050565b60006002600083815260200190815260200160002060009054906101000a900473ffffffffffffffffffffffffffffffffffffffff169050919050565b8173ffffffffffffffffffffffffffffffffffffffff168373ffffffffffffffffffffffffffffffffffffffff1603611ca8576040517f08c379a0000000000000000000000000000000000000000000000000000000008152600401611c9f90614033565b60405180910390fd5b80600560008573ffffffffffffffffffffffffffffffffffffffff1673ffffffffffffffffffffffffffffffffffffffff16815260200190815260200160002060008473ffffffffffffffffffffffffffffffffffffffff1673ffffffffffffffffffffffffffffffffffffffff16815260200190815260200160002060006101000a81548160ff0219169083151502179055508173ffffffffffffffffffffffffffffffffffffffff168373ffffffffffffffffffffffffffffffffffffffff167f17307eab39ab6107e8899845ad3d59bd9653f200f220920489ca2b5937696c3183604051611d999190612a26565b60405180910390a3505050565b611db1848484611904565b611dbd84848484612337565b611dfc576040517f08c379a0000000000000000000000000000000000000000000000000000000008152600401611df3906140c5565b60405180910390fd5b50505050565b606060405180602001604052806000815250905090565b606060006001611e28846124be565b01905060008167ffffffffffffffff811115611e4757611e46612d3e565b5b6040519080825280601f01601f191660200182016040528015611e795781602001600182028036833780820191505090505b509050600082602001820190505b600115611edc578080600190039150507f3031323334353637383961626364656600000000000000000000000000000000600a86061a8153600a8581611ed057611ecf6140e5565b5b04945060008503611e87575b819350505050919050565b6001816000016000828254019250508190555050565b600081600001549050919050565b600073ffffffffffffffffffffffffffffffffffffffff168273ffffffffffffffffffffffffffffffffffffffff1603611f7a576040517f08c379a0000000000000000000000000000000000000000000000000000000008152600401611f7190614160565b60405180910390fd5b611f8381612192565b15611fc3576040517f08c379a0000000000000000000000000000000000000000000000000000000008152600401611fba906141cc565b60405180910390fd5b611fd16000838360016121d3565b611fda81612192565b1561201a576040517f08c379a0000000000000000000000000000000000000000000000000000000008152600401612011906141cc565b60405180910390fd5b6001600360008473ffffffffffffffffffffffffffffffffffffffff1673ffffffffffffffffffffffffffffffffffffffff16815260200190815260200160002060008282540192505081905550816002600083815260200190815260200160002060006101000a81548173ffffffffffffffffffffffffffffffffffffffff021916908373ffffffffffffffffffffffffffffffffffffffff160217905550808273ffffffffffffffffffffffffffffffffffffffff16600073ffffffffffffffffffffffffffffffffffffffff167fddf252ad1be2c89b69c2b068fc378daa952ba7f163c4a11628f55a4df523b3ef60405160405180910390a4612124600083836001612331565b5050565b60007f01ffc9a7000000000000000000000000000000000000000000000000000000007bffffffffffffffffffffffffffffffffffffffffffffffffffffffff1916827bffffffffffffffffffffffffffffffffffffffffffffffffffffffff1916149050919050565b60008073ffffffffffffffffffffffffffffffffffffffff166121b483611bfd565b73ffffffffffffffffffffffffffffffffffffffff1614159050919050565b6121df84848484612611565b6001811115612223576040517f08c379a000000000000000000000000000000000000000000000000000000000815260040161221a9061425e565b60405180910390fd5b6000829050600073ffffffffffffffffffffffffffffffffffffffff168573ffffffffffffffffffffffffffffffffffffffff160361226a5761226581612617565b6122a9565b8373ffffffffffffffffffffffffffffffffffffffff168573ffffffffffffffffffffffffffffffffffffffff16146122a8576122a78582612660565b5b5b600073ffffffffffffffffffffffffffffffffffffffff168473ffffffffffffffffffffffffffffffffffffffff16036122eb576122e6816127cd565b61232a565b8473ffffffffffffffffffffffffffffffffffffffff168473ffffffffffffffffffffffffffffffffffffffff161461232957612328848261289e565b5b5b5050505050565b50505050565b60006123588473ffffffffffffffffffffffffffffffffffffffff1661291d565b156124b1578373ffffffffffffffffffffffffffffffffffffffff1663150b7a026123816117ae565b8786866040518563ffffffff1660e01b81526004016123a394939291906142d3565b6020604051808303816000875af19250505080156123df57506040513d601f19601f820116820180604052508101906123dc9190614334565b60015b612461573d806000811461240f576040519150601f19603f3d011682016040523d82523d6000602084013e612414565b606091505b506000815103612459576040517f08c379a0000000000000000000000000000000000000000000000000000000008152600401612450906140c5565b60405180910390fd5b805181602001fd5b63150b7a0260e01b7bffffffffffffffffffffffffffffffffffffffffffffffffffffffff1916817bffffffffffffffffffffffffffffffffffffffffffffffffffffffff1916149150506124b6565b600190505b949350505050565b600080600090507a184f03e93ff9f4daa797ed6e38ed64bf6a1f010000000000000000831061251c577a184f03e93ff9f4daa797ed6e38ed64bf6a1f0100000000000000008381612512576125116140e5565b5b0492506040810190505b6d04ee2d6d415b85acef81000000008310612559576d04ee2d6d415b85acef8100000000838161254f5761254e6140e5565b5b0492506020810190505b662386f26fc10000831061258857662386f26fc10000838161257e5761257d6140e5565b5b0492506010810190505b6305f5e10083106125b1576305f5e10083816125a7576125a66140e5565b5b0492506008810190505b61271083106125d65761271083816125cc576125cb6140e5565b5b0492506004810190505b606483106125f957606483816125ef576125ee6140e5565b5b0492506002810190505b600a8310612608576001810190505b80915050919050565b50505050565b6008805490506009600083815260200190815260200160002081905550600881908060018154018082558091505060019003906000526020600020016000909190919091505550565b6000600161266d846109ed565b6126779190614361565b905060006007600084815260200190815260200160002054905081811461275c576000600660008673ffffffffffffffffffffffffffffffffffffffff1673ffffffffffffffffffffffffffffffffffffffff168152602001908152602001600020600084815260200190815260200160002054905080600660008773ffffffffffffffffffffffffffffffffffffffff1673ffffffffffffffffffffffffffffffffffffffff168152602001908152602001600020600084815260200190815260200160002081905550816007600083815260200190815260200160002081905550505b6007600084815260200190815260200160002060009055600660008573ffffffffffffffffffffffffffffffffffffffff1673ffffffffffffffffffffffffffffffffffffffff16815260200190815260200160002060008381526020019081526020016000206000905550505050565b600060016008805490506127e19190614361565b905060006009600084815260200190815260200160002054905060006008838154811061281157612810613611565b5b90600052602060002001549050806008838154811061283357612832613611565b5b90600052602060002001819055508160096000838152602001908152602001600020819055506009600085815260200190815260200160002060009055600880548061288257612881614395565b5b6001900381819060005260206000200160009055905550505050565b60006128a9836109ed565b905081600660008573ffffffffffffffffffffffffffffffffffffffff1673ffffffffffffffffffffffffffffffffffffffff168152602001908152602001600020600083815260200190815260200160002081905550806007600084815260200190815260200160002081905550505050565b6000808273ffffffffffffffffffffffffffffffffffffffff163b119050919050565b6040518060a0016040528060608152602001600060ff1681526020016060815260200160608152602001606081525090565b6000604051905090565b600080fd5b600080fd5b60007fffffffff0000000000000000000000000000000000000000000000000000000082169050919050565b6129bb81612986565b81146129c657600080fd5b50565b6000813590506129d8816129b2565b92915050565b6000602082840312156129f4576129f361297c565b5b6000612a02848285016129c9565b91505092915050565b60008115159050919050565b612a2081612a0b565b82525050565b6000602082019050612a3b6000830184612a17565b92915050565b600081519050919050565b600082825260208201905092915050565b60005b83811015612a7b578082015181840152602081019050612a60565b60008484015250505050565b6000601f19601f8301169050919050565b6000612aa382612a41565b612aad8185612a4c565b9350612abd818560208601612a5d565b612ac681612a87565b840191505092915050565b60006020820190508181036000830152612aeb8184612a98565b905092915050565b6000819050919050565b612b0681612af3565b8114612b1157600080fd5b50565b600081359050612b2381612afd565b92915050565b600060208284031215612b3f57612b3e61297c565b5b6000612b4d84828501612b14565b91505092915050565b600073ffffffffffffffffffffffffffffffffffffffff82169050919050565b6000612b8182612b56565b9050919050565b612b9181612b76565b82525050565b6000602082019050612bac6000830184612b88565b92915050565b612bbb81612b76565b8114612bc657600080fd5b50565b600081359050612bd881612bb2565b92915050565b60008060408385031215612bf557612bf461297c565b5b6000612c0385828601612bc9565b9250506020612c1485828601612b14565b9150509250929050565b612c2781612af3565b82525050565b6000602082019050612c426000830184612c1e565b92915050565b600080600060608486031215612c6157612c6061297c565b5b6000612c6f86828701612bc9565b9350506020612c8086828701612bc9565b9250506040612c9186828701612b14565b9150509250925092565b600060208284031215612cb157612cb061297c565b5b6000612cbf84828501612bc9565b91505092915050565b612cd181612a0b565b8114612cdc57600080fd5b50565b600081359050612cee81612cc8565b92915050565b60008060408385031215612d0b57612d0a61297c565b5b6000612d1985828601612bc9565b9250506020612d2a85828601612cdf565b9150509250929050565b600080fd5b600080fd5b7f4e487b7100000000000000000000000000000000000000000000000000000000600052604160045260246000fd5b612d7682612a87565b810181811067ffffffffffffffff82111715612d9557612d94612d3e565b5b80604052505050565b6000612da8612972565b9050612db48282612d6d565b919050565b600067ffffffffffffffff821115612dd457612dd3612d3e565b5b612ddd82612a87565b9050602081019050919050565b82818337600083830152505050565b6000612e0c612e0784612db9565b612d9e565b905082815260208101848484011115612e2857612e27612d39565b5b612e33848285612dea565b509392505050565b600082601f830112612e5057612e4f612d34565b5b8135612e60848260208601612df9565b91505092915050565b60008060008060808587031215612e8357612e8261297c565b5b6000612e9187828801612bc9565b9450506020612ea287828801612bc9565b9350506040612eb387828801612b14565b925050606085013567ffffffffffffffff811115612ed457612ed3612981565b5b612ee087828801612e3b565b91505092959194509250565b600081519050919050565b600082825260208201905092915050565b6000819050602082019050919050565b612f2181612af3565b82525050565b6000612f338383612f18565b60208301905092915050565b6000602082019050919050565b6000612f5782612eec565b612f618185612ef7565b9350612f6c83612f08565b8060005b83811015612f9d578151612f848882612f27565b9750612f8f83612f3f565b925050600181019050612f70565b5085935050505092915050565b60006020820190508181036000830152612fc48184612f4c565b905092915050565b600082825260208201905092915050565b6000612fe882612a41565b612ff28185612fcc565b9350613002818560208601612a5d565b61300b81612a87565b840191505092915050565b600060ff82169050919050565b61302c81613016565b82525050565b600060a083016000830151848203600086015261304f8282612fdd565b91505060208301516130646020860182613023565b506040830151848203604086015261307c8282612fdd565b915050606083015184820360608601526130968282612fdd565b915050608083015184820360808601526130b08282612fdd565b9150508091505092915050565b600060208201905081810360008301526130d78184613032565b905092915050565b600080604083850312156130f6576130f561297c565b5b600061310485828601612bc9565b925050602061311585828601612bc9565b9150509250929050565b600067ffffffffffffffff82111561313a57613139612d3e565b5b61314382612a87565b9050602081019050919050565b600061316361315e8461311f565b612d9e565b90508281526020810184848401111561317f5761317e612d39565b5b61318a848285612dea565b509392505050565b600082601f8301126131a7576131a6612d34565b5b81356131b7848260208601613150565b91505092915050565b6131c981613016565b81146131d457600080fd5b50565b6000813590506131e6816131c0565b92915050565b600080600080600060a086880312156132085761320761297c565b5b600086013567ffffffffffffffff81111561322657613225612981565b5b61323288828901613192565b9550506020613243888289016131d7565b945050604086013567ffffffffffffffff81111561326457613263612981565b5b61327088828901613192565b935050606086013567ffffffffffffffff81111561329157613290612981565b5b61329d88828901613192565b925050608086013567ffffffffffffffff8111156132be576132bd612981565b5b6132ca88828901613192565b9150509295509295909350565b7f4e487b7100000000000000000000000000000000000000000000000000000000600052602260045260246000fd5b6000600282049050600182168061331e57607f821691505b602082108103613331576133306132d7565b5b50919050565b7f4552433732313a20617070726f76616c20746f2063757272656e74206f776e6560008201527f7200000000000000000000000000000000000000000000000000000000000000602082015250565b6000613393602183612a4c565b915061339e82613337565b604082019050919050565b600060208201905081810360008301526133c281613386565b9050919050565b7f4552433732313a20617070726f76652063616c6c6572206973206e6f7420746f60008201527f6b656e206f776e6572206f7220617070726f76656420666f7220616c6c000000602082015250565b6000613425603d83612a4c565b9150613430826133c9565b604082019050919050565b6000602082019050818103600083015261345481613418565b9050919050565b7f4552433732313a2063616c6c6572206973206e6f7420746f6b656e206f776e6560008201527f72206f7220617070726f76656400000000000000000000000000000000000000602082015250565b60006134b7602d83612a4c565b91506134c28261345b565b604082019050919050565b600060208201905081810360008301526134e6816134aa565b9050919050565b7f455243373231456e756d657261626c653a206f776e657220696e646578206f7560008201527f74206f6620626f756e6473000000000000000000000000000000000000000000602082015250565b6000613549602b83612a4c565b9150613554826134ed565b604082019050919050565b600060208201905081810360008301526135788161353c565b9050919050565b7f455243373231456e756d657261626c653a20676c6f62616c20696e646578206f60008201527f7574206f6620626f756e64730000000000000000000000000000000000000000602082015250565b60006135db602c83612a4c565b91506135e68261357f565b604082019050919050565b6000602082019050818103600083015261360a816135ce565b9050919050565b7f4e487b7100000000000000000000000000000000000000000000000000000000600052603260045260246000fd5b7f4552433732313a20696e76616c696420746f6b656e2049440000000000000000600082015250565b6000613676601883612a4c565b915061368182613640565b602082019050919050565b600060208201905081810360008301526136a581613669565b9050919050565b7f4552433732313a2061646472657373207a65726f206973206e6f74206120766160008201527f6c6964206f776e65720000000000000000000000000000000000000000000000602082015250565b6000613708602983612a4c565b9150613713826136ac565b604082019050919050565b60006020820190508181036000830152613737816136fb565b9050919050565b600081905092915050565b600061375482612a41565b61375e818561373e565b935061376e818560208601612a5d565b80840191505092915050565b60006137868285613749565b91506137928284613749565b91508190509392505050565b7f2121486176656e27742065786368616e67656420616e7920546f6b656e212100600082015250565b60006137d4601f83612a4c565b91506137df8261379e565b602082019050919050565b60006020820190508181036000830152613803816137c7565b9050919050565b7f596f7520646f6e277420686176652061206361726420746f2065786368616e6760008201527f6500000000000000000000000000000000000000000000000000000000000000602082015250565b6000613866602183612a4c565b91506138718261380a565b604082019050919050565b6000602082019050818103600083015261389581613859565b9050919050565b7f726563697069656e7420646f6e277420686176652061206361726420746f206560008201527f786368616e676500000000000000000000000000000000000000000000000000602082015250565b60006138f8602783612a4c565b91506139038261389c565b604082019050919050565b60006020820190508181036000830152613927816138eb565b9050919050565b60006060820190506139436000830186612c1e565b6139506020830185612c1e565b61395d6040830184612b88565b949350505050565b7f506179207468652069737375616e636520666565000000000000000000000000600082015250565b600061399b601483612a4c565b91506139a682613965565b602082019050919050565b600060208201905081810360008301526139ca8161398e565b9050919050565b7f4e6577206d656d62657220646f206e6f74206e65656420746f20706179000000600082015250565b6000613a07601d83612a4c565b9150613a12826139d1565b602082019050919050565b60006020820190508181036000830152613a36816139fa565b9050919050565b60008190508160005260206000209050919050565b60006020601f8301049050919050565b600082821b905092915050565b600060088302613a9f7fffffffffffffffffffffffffffffffffffffffffffffffffffffffffffffffff82613a62565b613aa98683613a62565b95508019841693508086168417925050509392505050565b6000819050919050565b6000613ae6613ae1613adc84612af3565b613ac1565b612af3565b9050919050565b6000819050919050565b613b0083613acb565b613b14613b0c82613aed565b848454613a6f565b825550505050565b600090565b613b29613b1c565b613b34818484613af7565b505050565b5b81811015613b5857613b4d600082613b21565b600181019050613b3a565b5050565b601f821115613b9d57613b6e81613a3d565b613b7784613a52565b81016020851015613b86578190505b613b9a613b9285613a52565b830182613b39565b50505b505050565b600082821c905092915050565b6000613bc060001984600802613ba2565b1980831691505092915050565b6000613bd98383613baf565b9150826002028217905092915050565b613bf282612a41565b67ffffffffffffffff811115613c0b57613c0a612d3e565b5b613c158254613306565b613c20828285613b5c565b600060209050601f831160018114613c535760008415613c41578287015190505b613c4b8582613bcd565b865550613cb3565b601f198416613c6186613a3d565b60005b82811015613c8957848901518255600182019150602085019450602081019050613c64565b86831015613ca65784890151613ca2601f891682613baf565b8355505b6001600288020188555050505b505050505050565b613cc481613016565b82525050565b600060a0820190508181036000830152613ce48188612a98565b9050613cf36020830187613cbb565b8181036040830152613d058186612a98565b90508181036060830152613d198185612a98565b90508181036080830152613d2d8184612a98565b90509695505050505050565b600081549050613d4881613306565b9050919050565b818103613d5d575050613e35565b613d6682613d39565b67ffffffffffffffff811115613d7f57613d7e612d3e565b5b613d898254613306565b613d94828285613b5c565b6000601f831160018114613dc35760008415613db1578287015490505b613dbb8582613bcd565b865550613e2e565b601f198416613dd187613a3d565b9650613ddc86613a3d565b60005b82811015613e0457848901548255600182019150600185019450602081019050613ddf565b86831015613e215784890154613e1d601f891682613baf565b8355505b6001600288020188555050505b5050505050505b565b7f4e487b7100000000000000000000000000000000000000000000000000000000600052601160045260246000fd5b6000613e7182613016565b915060ff8203613e8457613e83613e37565b5b600182019050919050565b6000613e9a82612af3565b9150613ea583612af3565b9250828201905080821115613ebd57613ebc613e37565b5b92915050565b7f4552433732313a207472616e736665722066726f6d20696e636f72726563742060008201527f6f776e6572000000000000000000000000000000000000000000000000000000602082015250565b6000613f1f602583612a4c565b9150613f2a82613ec3565b604082019050919050565b60006020820190508181036000830152613f4e81613f12565b9050919050565b7f4552433732313a207472616e7366657220746f20746865207a65726f2061646460008201527f7265737300000000000000000000000000000000000000000000000000000000602082015250565b6000613fb1602483612a4c565b9150613fbc82613f55565b604082019050919050565b60006020820190508181036000830152613fe081613fa4565b9050919050565b7f4552433732313a20617070726f766520746f2063616c6c657200000000000000600082015250565b600061401d601983612a4c565b915061402882613fe7565b602082019050919050565b6000602082019050818103600083015261404c81614010565b9050919050565b7f4552433732313a207472616e7366657220746f206e6f6e20455243373231526560008201527f63656976657220696d706c656d656e7465720000000000000000000000000000602082015250565b60006140af603283612a4c565b91506140ba82614053565b604082019050919050565b600060208201905081810360008301526140de816140a2565b9050919050565b7f4e487b7100000000000000000000000000000000000000000000000000000000600052601260045260246000fd5b7f4552433732313a206d696e7420746f20746865207a65726f2061646472657373600082015250565b600061414a602083612a4c565b915061415582614114565b602082019050919050565b600060208201905081810360008301526141798161413d565b9050919050565b7f4552433732313a20746f6b656e20616c7265616479206d696e74656400000000600082015250565b60006141b6601c83612a4c565b91506141c182614180565b602082019050919050565b600060208201905081810360008301526141e5816141a9565b9050919050565b7f455243373231456e756d657261626c653a20636f6e736563757469766520747260008201527f616e7366657273206e6f7420737570706f727465640000000000000000000000602082015250565b6000614248603583612a4c565b9150614253826141ec565b604082019050919050565b600060208201905081810360008301526142778161423b565b9050919050565b600081519050919050565b600082825260208201905092915050565b60006142a58261427e565b6142af8185614289565b93506142bf818560208601612a5d565b6142c881612a87565b840191505092915050565b60006080820190506142e86000830187612b88565b6142f56020830186612b88565b6143026040830185612c1e565b8181036060830152614314818461429a565b905095945050505050565b60008151905061432e816129b2565b92915050565b60006020828403121561434a5761434961297c565b5b60006143588482850161431f565b91505092915050565b600061436c82612af3565b915061437783612af3565b925082820390508181111561438f5761438e613e37565b5b92915050565b7f4e487b7100000000000000000000000000000000000000000000000000000000600052603160045260246000fdfea2646970667358221220326cedf45edb17a6d01d5c14aa900f6355c567fba0cde046bd233579a700b76c64736f6c63430008130033",
  "linkReferences": {},
  "deployedLinkReferences": {}
}